{
  "_format": "hh-sol-artifact-1",
  "contractName": "RideSharing",
  "sourceName": "contracts/contract/RideShare.sol",
  "abi": [
    {
      "anonymous": false,
      "inputs": [
        {
          "indexed": false,
          "internalType": "uint256",
          "name": "rideId",
          "type": "uint256"
        },
        {
          "indexed": false,
          "internalType": "address",
          "name": "passenger",
          "type": "address"
        },
        {
          "indexed": false,
          "internalType": "string",
          "name": "name",
          "type": "string"
        },
        {
          "indexed": false,
          "internalType": "string",
          "name": "carModel",
          "type": "string"
        },
        {
          "indexed": false,
          "internalType": "string",
          "name": "origin",
          "type": "string"
        },
        {
          "indexed": false,
          "internalType": "string",
          "name": "destination",
          "type": "string"
        },
        {
          "indexed": false,
          "internalType": "uint256",
          "name": "travelDate",
          "type": "uint256"
        },
        {
          "indexed": false,
          "internalType": "uint256",
          "name": "passengers",
          "type": "uint256"
        }
      ],
      "name": "RideCreated",
      "type": "event"
    },
    {
      "inputs": [
        {
          "internalType": "uint256",
          "name": "",
          "type": "uint256"
        }
      ],
      "name": "carInventory",
      "outputs": [
        {
          "internalType": "string",
          "name": "",
          "type": "string"
        }
      ],
      "stateMutability": "view",
      "type": "function"
    },
    {
      "inputs": [
        {
          "internalType": "string",
          "name": "_name",
          "type": "string"
        },
        {
          "internalType": "string",
          "name": "_carModel",
          "type": "string"
        },
        {
          "internalType": "string",
          "name": "_origin",
          "type": "string"
        },
        {
          "internalType": "string",
          "name": "_destination",
          "type": "string"
        },
        {
          "internalType": "uint256",
          "name": "_travelDate",
          "type": "uint256"
        },
        {
          "internalType": "uint256",
          "name": "_passengers",
          "type": "uint256"
        }
      ],
      "name": "createRide",
      "outputs": [],
      "stateMutability": "nonpayable",
      "type": "function"
    },
    {
      "inputs": [
        {
          "internalType": "uint256",
          "name": "",
          "type": "uint256"
        }
      ],
      "name": "destinations",
      "outputs": [
        {
          "internalType": "string",
          "name": "",
          "type": "string"
        }
      ],
      "stateMutability": "view",
      "type": "function"
    },
    {
      "inputs": [],
      "name": "getCarInventory",
      "outputs": [
        {
          "internalType": "string[]",
          "name": "",
          "type": "string[]"
        }
      ],
      "stateMutability": "view",
      "type": "function"
    },
    {
      "inputs": [],
      "name": "getDestinations",
      "outputs": [
        {
          "internalType": "string[]",
          "name": "",
          "type": "string[]"
        }
      ],
      "stateMutability": "view",
      "type": "function"
    },
    {
      "inputs": [],
      "name": "rideCount",
      "outputs": [
        {
          "internalType": "uint256",
          "name": "",
          "type": "uint256"
        }
      ],
      "stateMutability": "view",
      "type": "function"
    },
    {
      "inputs": [
        {
          "internalType": "uint256",
          "name": "",
          "type": "uint256"
        }
      ],
      "name": "rides",
      "outputs": [
        {
          "internalType": "address",
          "name": "passenger",
          "type": "address"
        },
        {
          "internalType": "string",
          "name": "name",
          "type": "string"
        },
        {
          "internalType": "string",
          "name": "carModel",
          "type": "string"
        },
        {
          "internalType": "string",
          "name": "origin",
          "type": "string"
        },
        {
          "internalType": "string",
          "name": "destination",
          "type": "string"
        },
        {
          "internalType": "uint256",
          "name": "travelDate",
          "type": "uint256"
        },
        {
          "internalType": "uint256",
          "name": "passengers",
          "type": "uint256"
        }
      ],
      "stateMutability": "view",
      "type": "function"
    }
  ],
  "bytecode": "0x60806040526040518060a001604052806040518060400160405280600781526020017f417564692041350000000000000000000000000000000000000000000000000081525081526020016040518060400160405280600981526020017f565720416572746f6e000000000000000000000000000000000000000000000081525081526020016040518060400160405280600e81526020017f546f796f746120436f726f6c6c6100000000000000000000000000000000000081525081526020016040518060400160405280600781526020017f424d57203533300000000000000000000000000000000000000000000000000081525081526020016040518060400160405280600c81526020017f4b69612053706f7274616765000000000000000000000000000000000000000081525081525060029060056200014692919062000263565b5060405180608001604052806040518060400160405280600681526020017f4b616e707572000000000000000000000000000000000000000000000000000081525081526020016040518060400160405280600581526020017f44656c686900000000000000000000000000000000000000000000000000000081525081526020016040518060400160405280600b81526020017f47616e6a204261736f646100000000000000000000000000000000000000000081525081526020016040518060400160405280600781526020017f4c75636b6e6f770000000000000000000000000000000000000000000000000081525081525060039060046200024e929190620002ca565b503480156200025c57600080fd5b50620004b4565b828054828255906000526020600020908101928215620002b7579160200282015b82811115620002b6578251829080519060200190620002a592919062000331565b509160200191906001019062000284565b5b509050620002c69190620003c2565b5090565b8280548282559060005260206000209081019282156200031e579160200282015b828111156200031d5782518290805190602001906200030c92919062000331565b5091602001919060010190620002eb565b5b5090506200032d9190620003c2565b5090565b8280546200033f906200047e565b90600052602060002090601f016020900481019282620003635760008555620003af565b82601f106200037e57805160ff1916838001178555620003af565b82800160010185558215620003af579182015b82811115620003ae57825182559160200191906001019062000391565b5b509050620003be9190620003ea565b5090565b5b80821115620003e65760008181620003dc919062000409565b50600101620003c3565b5090565b5b8082111562000405576000816000905550600101620003eb565b5090565b50805462000417906200047e565b6000825580601f106200042b57506200044c565b601f0160209004906000526020600020908101906200044b9190620003ea565b5b50565b7f4e487b7100000000000000000000000000000000000000000000000000000000600052602260045260246000fd5b600060028204905060018216806200049757607f821691505b60208210811415620004ae57620004ad6200044f565b5b50919050565b61157a80620004c46000396000f3fe608060405234801561001057600080fd5b506004361061007d5760003560e01c806396a832861161005b57806396a8328614610106578063b47c188314610122578063b632434214610140578063f822658b146101705761007d565b80635205f112146100825780635ba536bc146100b85780638dd4ba2e146100d6575b600080fd5b61009c60048036038101906100979190610b51565b61018e565b6040516100af9796959493929190610c67565b60405180910390f35b6100c0610410565b6040516100cd9190610dfe565b60405180910390f35b6100f060048036038101906100eb9190610b51565b6104e9565b6040516100fd9190610e20565b60405180910390f35b610120600480360381019061011b9190610f77565b610595565b005b61012a6108d9565b6040516101379190611074565b60405180910390f35b61015a60048036038101906101559190610b51565b6108df565b6040516101679190610e20565b60405180910390f35b61017861098b565b6040516101859190610dfe565b60405180910390f35b60006020528060005260406000206000915090508060000160009054906101000a900473ffffffffffffffffffffffffffffffffffffffff16908060010180546101d7906110be565b80601f0160208091040260200160405190810160405280929190818152602001828054610203906110be565b80156102505780601f1061022557610100808354040283529160200191610250565b820191906000526020600020905b81548152906001019060200180831161023357829003601f168201915b505050505090806002018054610265906110be565b80601f0160208091040260200160405190810160405280929190818152602001828054610291906110be565b80156102de5780601f106102b3576101008083540402835291602001916102de565b820191906000526020600020905b8154815290600101906020018083116102c157829003601f168201915b5050505050908060030180546102f3906110be565b80601f016020809104026020016040519081016040528092919081815260200182805461031f906110be565b801561036c5780601f106103415761010080835404028352916020019161036c565b820191906000526020600020905b81548152906001019060200180831161034f57829003601f168201915b505050505090806004018054610381906110be565b80601f01602080910402602001604051908101604052809291908181526020018280546103ad906110be565b80156103fa5780601f106103cf576101008083540402835291602001916103fa565b820191906000526020600020905b8154815290600101906020018083116103dd57829003601f168201915b5050505050908060050154908060060154905087565b60606003805480602002602001604051908101604052809291908181526020016000905b828210156104e0578382906000526020600020018054610453906110be565b80601f016020809104026020016040519081016040528092919081815260200182805461047f906110be565b80156104cc5780601f106104a1576101008083540402835291602001916104cc565b820191906000526020600020905b8154815290600101906020018083116104af57829003601f168201915b505050505081526020019060010190610434565b50505050905090565b600381815481106104f957600080fd5b906000526020600020016000915090508054610514906110be565b80601f0160208091040260200160405190810160405280929190818152602001828054610540906110be565b801561058d5780601f106105625761010080835404028352916020019161058d565b820191906000526020600020905b81548152906001019060200180831161057057829003601f168201915b505050505081565b62015180426105a4919061114e565b82116105e5576040517f08c379a00000000000000000000000000000000000000000000000000000000081526004016105dc906111f1565b60405180910390fd5b60008111610628576040517f08c379a000000000000000000000000000000000000000000000000000000000815260040161061f9061125d565b60405180910390fd5b600086511161066c576040517f08c379a0000000000000000000000000000000000000000000000000000000008152600401610663906112c9565b60405180910390fd5b60008551116106b0576040517f08c379a00000000000000000000000000000000000000000000000000000000081526004016106a790611335565b60405180910390fd5b60008451116106f4576040517f08c379a00000000000000000000000000000000000000000000000000000000081526004016106eb906113a1565b60405180910390fd5b6000835111610738576040517f08c379a000000000000000000000000000000000000000000000000000000000815260040161072f9061140d565b60405180910390fd5b6040518060e001604052803373ffffffffffffffffffffffffffffffffffffffff16815260200187815260200186815260200185815260200184815260200183815260200182815250600080600154815260200190815260200160002060008201518160000160006101000a81548173ffffffffffffffffffffffffffffffffffffffff021916908373ffffffffffffffffffffffffffffffffffffffff16021790555060208201518160010190805190602001906107f8929190610a64565b506040820151816002019080519060200190610815929190610a64565b506060820151816003019080519060200190610832929190610a64565b50608082015181600401908051906020019061084f929190610a64565b5060a0820151816005015560c082015181600601559050506001600081548092919061087a9061142d565b91905055507f9a88366d1029b48a9892756539079753fac052b4ec8cae9065df14ffc32ca7e9600180546108ae9190611476565b338888888888886040516108c99897969594939291906114aa565b60405180910390a1505050505050565b60015481565b600281815481106108ef57600080fd5b90600052602060002001600091509050805461090a906110be565b80601f0160208091040260200160405190810160405280929190818152602001828054610936906110be565b80156109835780601f1061095857610100808354040283529160200191610983565b820191906000526020600020905b81548152906001019060200180831161096657829003601f168201915b505050505081565b60606002805480602002602001604051908101604052809291908181526020016000905b82821015610a5b5783829060005260206000200180546109ce906110be565b80601f01602080910402602001604051908101604052809291908181526020018280546109fa906110be565b8015610a475780601f10610a1c57610100808354040283529160200191610a47565b820191906000526020600020905b815481529060010190602001808311610a2a57829003601f168201915b5050505050815260200190600101906109af565b50505050905090565b828054610a70906110be565b90600052602060002090601f016020900481019282610a925760008555610ad9565b82601f10610aab57805160ff1916838001178555610ad9565b82800160010185558215610ad9579182015b82811115610ad8578251825591602001919060010190610abd565b5b509050610ae69190610aea565b5090565b5b80821115610b03576000816000905550600101610aeb565b5090565b6000604051905090565b600080fd5b600080fd5b6000819050919050565b610b2e81610b1b565b8114610b3957600080fd5b50565b600081359050610b4b81610b25565b92915050565b600060208284031215610b6757610b66610b11565b5b6000610b7584828501610b3c565b91505092915050565b600073ffffffffffffffffffffffffffffffffffffffff82169050919050565b6000610ba982610b7e565b9050919050565b610bb981610b9e565b82525050565b600081519050919050565b600082825260208201905092915050565b60005b83811015610bf9578082015181840152602081019050610bde565b83811115610c08576000848401525b50505050565b6000601f19601f8301169050919050565b6000610c2a82610bbf565b610c348185610bca565b9350610c44818560208601610bdb565b610c4d81610c0e565b840191505092915050565b610c6181610b1b565b82525050565b600060e082019050610c7c600083018a610bb0565b8181036020830152610c8e8189610c1f565b90508181036040830152610ca28188610c1f565b90508181036060830152610cb68187610c1f565b90508181036080830152610cca8186610c1f565b9050610cd960a0830185610c58565b610ce660c0830184610c58565b98975050505050505050565b600081519050919050565b600082825260208201905092915050565b6000819050602082019050919050565b600082825260208201905092915050565b6000610d3a82610bbf565b610d448185610d1e565b9350610d54818560208601610bdb565b610d5d81610c0e565b840191505092915050565b6000610d748383610d2f565b905092915050565b6000602082019050919050565b6000610d9482610cf2565b610d9e8185610cfd565b935083602082028501610db085610d0e565b8060005b85811015610dec5784840389528151610dcd8582610d68565b9450610dd883610d7c565b925060208a01995050600181019050610db4565b50829750879550505050505092915050565b60006020820190508181036000830152610e188184610d89565b905092915050565b60006020820190508181036000830152610e3a8184610c1f565b905092915050565b600080fd5b600080fd5b7f4e487b7100000000000000000000000000000000000000000000000000000000600052604160045260246000fd5b610e8482610c0e565b810181811067ffffffffffffffff82111715610ea357610ea2610e4c565b5b80604052505050565b6000610eb6610b07565b9050610ec28282610e7b565b919050565b600067ffffffffffffffff821115610ee257610ee1610e4c565b5b610eeb82610c0e565b9050602081019050919050565b82818337600083830152505050565b6000610f1a610f1584610ec7565b610eac565b905082815260208101848484011115610f3657610f35610e47565b5b610f41848285610ef8565b509392505050565b600082601f830112610f5e57610f5d610e42565b5b8135610f6e848260208601610f07565b91505092915050565b60008060008060008060c08789031215610f9457610f93610b11565b5b600087013567ffffffffffffffff811115610fb257610fb1610b16565b5b610fbe89828a01610f49565b965050602087013567ffffffffffffffff811115610fdf57610fde610b16565b5b610feb89828a01610f49565b955050604087013567ffffffffffffffff81111561100c5761100b610b16565b5b61101889828a01610f49565b945050606087013567ffffffffffffffff81111561103957611038610b16565b5b61104589828a01610f49565b935050608061105689828a01610b3c565b92505060a061106789828a01610b3c565b9150509295509295509295565b60006020820190506110896000830184610c58565b92915050565b7f4e487b7100000000000000000000000000000000000000000000000000000000600052602260045260246000fd5b600060028204905060018216806110d657607f821691505b602082108114156110ea576110e961108f565b5b50919050565b7f4e487b7100000000000000000000000000000000000000000000000000000000600052601260045260246000fd5b7f4e487b7100000000000000000000000000000000000000000000000000000000600052601160045260246000fd5b600061115982610b1b565b915061116483610b1b565b925082611174576111736110f0565b5b828204905092915050565b7f54726176656c2064617465206d75737420626520696e2074686520667574757260008201527f6500000000000000000000000000000000000000000000000000000000000000602082015250565b60006111db602183610bca565b91506111e68261117f565b604082019050919050565b6000602082019050818103600083015261120a816111ce565b9050919050565b7f496e76616c6964206e756d626572206f662070617373656e6765727300000000600082015250565b6000611247601c83610bca565b915061125282611211565b602082019050919050565b600060208201905081810360008301526112768161123a565b9050919050565b7f4e616d6520697320726571756972656400000000000000000000000000000000600082015250565b60006112b3601083610bca565b91506112be8261127d565b602082019050919050565b600060208201905081810360008301526112e2816112a6565b9050919050565b7f436172206d6f64656c2069732072657175697265640000000000000000000000600082015250565b600061131f601583610bca565b915061132a826112e9565b602082019050919050565b6000602082019050818103600083015261134e81611312565b9050919050565b7f4f726967696e2069732072657175697265640000000000000000000000000000600082015250565b600061138b601283610bca565b915061139682611355565b602082019050919050565b600060208201905081810360008301526113ba8161137e565b9050919050565b7f44657374696e6174696f6e206973207265717569726564000000000000000000600082015250565b60006113f7601783610bca565b9150611402826113c1565b602082019050919050565b60006020820190508181036000830152611426816113ea565b9050919050565b600061143882610b1b565b91507fffffffffffffffffffffffffffffffffffffffffffffffffffffffffffffffff82141561146b5761146a61111f565b5b600182019050919050565b600061148182610b1b565b915061148c83610b1b565b92508282101561149f5761149e61111f565b5b828203905092915050565b6000610100820190506114c0600083018b610c58565b6114cd602083018a610bb0565b81810360408301526114df8189610c1f565b905081810360608301526114f38188610c1f565b905081810360808301526115078187610c1f565b905081810360a083015261151b8186610c1f565b905061152a60c0830185610c58565b61153760e0830184610c58565b999850505050505050505056fea26469706673582212207ca7de02880fb7f104c8b35a17884e623caf0fa1a5d1670f770f365aa75c20ce64736f6c63430008090033",
  "linkReferences": {},
  "deployedLinkReferences": {}
}